:1000000000000220AD010000D9010000D90100006C
:10001000D9010000D9010000D9010000D901000078
:10002000D9010000D9010000D9010000C10B000076
:10003000D9010000D9010000610D0000A50D0000EC
:10004000D9010000D9010000D9010000D901000048
:10005000D9010000D9010000D9010000D901000038
:10006000D9010000D9010000D9010000D901000028
:10007000D9010000D9010000D9010000D901000018
:10008000D9010000D9010000D9010000D901000008
:100090009D050000D9010000D9010000D901000030
:1000A000D9010000D9010000D9010000D9010000E8
:1000B000D9010000D9010000D9010000D9010000D8
:1000C000D9010000D9010000D9010000D9010000C8
:1000D000D9010000D9010000D901000010B5054C7C
:1000E000237833B9044B13B10448AFF300800123E4
:1000F000237010BD8400002000000000944B00001D
:10010000084B10B51BB108480849AFF300800848F8
:10011000036803B910BD074B002BFBD0BDE81040AE
:10012000184700BF00000000944B0000880000202A
:100130008000002000000000154B002B08BF134B6F
:100140009D46A3F5803A00218B460F461348144A7A
:10015000121A03F036FD0F4B002B00D098470E4BC0
:10016000002B00D098470020002104000D000D480E
:10017000002802D00C48AFF3008003F0F1FC20000F
:10018000290003F0BBFB03F0E1FB00BF0000080007
:100190000000022000000000000000008400002099
:1001A000B025002000000000000000000648804745
:1001B0000649074A074B9A42BEBF51F8040B42F862
:1001C000040BF8E7FFF7B8FF2D030000A04B000079
:1001D0000000002084000020FEE700BF80B400AFD4
:1001E000044BDB6C1B0EDBB21846BD465DF8047B8E
:1001F000704700BFB081E00F80B582B000AF00F063
:1002000015F87860074B5B6803F00F031A467B68AC
:10021000D3407B60044A7B6813607B6818460837CC
:10022000BD4680BD00800C400800002080B582B033
:1002300000AF334BDB6A03F47053B3F5805F0AD031
:10024000B3F5005F03D0B3F5006F08D00BE02D4B82
:100250001B687B6047E04FF400437B6043E02A4B20
:100260001B687B603FE0264BDB6803F4E063B3F57B
:10027000007F1BD0B3F5007F05D8002B24D0B3F549
:10028000807F16D02BE0B3F5806F09D0B3F5A06F57
:1002900003D0B3F5407F06D021E01C4B7B6021E00A
:1002A0001B4B7B601EE01B4B7B601BE01A4B7B6093
:1002B00018E0FFF793FF0346122B02D9174B7B6020
:1002C00010E0174B7B600DE0FFF788FF0346122B11
:1002D00002D9144B7B6005E0134B7B6002E00023E6
:1002E0007B6000BF00BF064B1B6803F4E0339B0B31
:1002F00001337A68B2FBF3F318460837BD4680BD78
:1003000000800C400400002000000020003FAB01F2
:10031000406F4001809FD500C0D8A70040B5640061
:10032000C0CF6A00804F120040420F0080B400AF7F
:10033000BD465DF8047B704780B400AF4FF40043C6
:100340001846BD465DF8047B704700BF80B400AF1F
:100350004FF47A731846BD465DF8047B704700BFC2
:1003600080B400AF034B1B681846BD465DF8047BA4
:10037000704700BF0400002080B483B000AF7860F5
:10038000002318460C37BD465DF8047B704700BF5C
:1003900080B483B000AF7860FEE700BF80B483B064
:1003A00000AF786039603B684FF400525A60002318
:1003B00018460C37BD465DF8047B704780B483B0A7
:1003C00000AF7860012318460C37BD465DF8047B0A
:1003D000704700BF80B485B000AFF860B9607A6044
:1003E000002318461437BD465DF8047B704700BFF4
:1003F00080B586B000AFF860B9607A6000237B6199
:1004000011E000F081F938613B69B3F1FF3F09D099
:10041000BB685A1CBA603A69D2B21A707B69013360
:100420007B6100E004E07B685A1E7A60002BE8D113
:100430007B69002B02DC4FF0FF3300E07B6918463C
:100440001837BD4680BD00BF90B585B000AF78605D
:10045000184B1B68002B02D1164B174A1A60154B1C
:100460001B68FB60134B1A687B681344EFF3088228
:1004700014462246934212D9104B1B689B681846BB
:1004800003F078FA04460E4803F0EDFC03462046DC
:100490000B491A4600F016F8012003F057FA054BF5
:1004A0001A687B681344034A1360FB6818461437C4
:1004B000BD4690BDA0000020B025002074000020A3
:1004C0001449000080B586B000AFF860B9607A606A
:1004D00000237B6109E0BB685A1CBA601B78184690
:1004E00000F050F97B6901337B617A697B689A423D
:1004F000F1DB7B6818461837BD4680BD80B483B0F9
:1005000000AF0346FB71084997F907305B09FA7998
:1005100002F01F02012000FA02F241F823200C37FA
:10052000BD465DF8047B704700E100E080B483B015
:1005300000AF0346FB71094997F907305B09FA7967
:1005400002F01F02012000FA02F2603341F823207A
:100550000C37BD465DF8047B704700BF00E100E04A
:1005600080B483B000AF786039607B683A689A6481
:100570000C37BD465DF8047B704700BF80B483B084
:1005800000AF786039607B68DA6C3B681A437B683F
:10059000DA640C37BD465DF8047B704798B500AF50
:1005A000164B1B6903F08003002B26D0144B1C68EC
:1005B000124803F079F903461A46124B1A55104BAC
:1005C0001B6801330E4A13600F4B1B6801330E4A40
:1005D00013600B4B1B68082B02D1094B00221A60D9
:1005E000094B1B68082B08DD054B00221A60064BDF
:1005F00000221A60054B00221A6098BD00E00040FE
:10060000A8000020B0000020AC000020A4000020C2
:1006100080B483B000AF78607B68002B03D0064BBA
:1006200001221A7002E0044B00221A700C37BD46FA
:100630005DF8047B704700BFB8000020B0B588B0FB
:1006400000AF2A48012102F02DFC2948012102F0C7
:1006500029FC042000210422012302F0EDFE0420E5
:1006600001210122002302F0E7FE224BFB61224B15
:100670003C1D1D460FCD0FC495E8030084E8030020
:10068000052007210422012302F0D6FE1B48012188
:1006900002F008FC00233B713B1DF869194603F08A
:1006A00047F8FB6940F203125A6512480421FFF72C
:1006B00057FF1420FFF73AFF0E480421FFF75EFFB3
:1006C0001420FFF71BFFF869052102F0F5FF0C4B22
:1006D0001B689B68184600210222002303F0F8FAE9
:1006E000084B01221A702037BD46B0BD408104007E
:1006F00000D2040000E00040304900000032040055
:1007000074000020B900002080B582B000AF4FF027
:10071000FF337B60174B1B7883F00103DBB2002BA8
:1007200001D0FFF78BFF02F0D1FD3860124B1B6840
:10073000002B16DD114B1B68114AD35CDBB27B60CA
:100740000E4B1B6801330D4A13600C4B1B68082BC2
:1007500002D10A4B00221A60074B1B68013B064A74
:100760001360386802F0C2FD7B6818460837BD4642
:1007700080BD00BFB9000020AC000020A400002014
:10078000B000002080B582B000AF0346FB71144B6F
:100790001B7883F00103DBB2002B01D0FFF74EFF83
:1007A000104B1B78002B06D0FB790A2B03D10E4887
:1007B0000D2103F08DF8FB790B48194603F088F8FA
:1007C000084B1B78002B06D0FB790D2B03D1064874
:1007D0000A2103F07DF8FB7918460837BD4680BD35
:1007E000B9000020B800002000E0004080B588B0CB
:1007F00000AF786000237B6101F02AF93E4B1B6853
:10080000002B04D100F0B8F83B4B01221A607B6842
:10081000002B0ED008231A467B6813447B607B684C
:1008200003F00703002B04D07B6823F00703083391
:100830007B607B68002B57D07B6842F21F3293426B
:1008400052D82E4BBB612D4B1B68FB6104E0FB694A
:10085000BB61FB691B68FB61FB695A687B689A4254
:1008600003D2FB691B68002BF1D1FB69244A934238
:100870003AD0BB691B68082213447B61FB691A6884
:10088000BB691A60FB695A687B68D31A0822520058
:10089000934222D9FA697B681344FB60FB695A686A
:1008A0007B68D21AFB685A60FB697A685A60FB68F9
:1008B0005B68BB60114B3B6102E03B691B683B61BD
:1008C0003B691B685A68BB689A42F6D33B691A6851
:1008D000FB681A603B69FA681A600A4B1A68FB6980
:1008E0005B68D31A074A136001F0C0F87B691846A9
:1008F0002037BD4680BD00BFF4230020E423002044
:10090000EC2300200C00002080B586B000AF78609A
:100910007B683B617B68002B27D008235B423A69E8
:1009200013443B613B69FB6001F092F8FB685B6834
:10093000BB600F4B7B6102E07B691B687B617B695D
:100940001B685A68BB689A42F6D37B691A68FB68D1
:100950001A607B69FA681A60FB685A68054B1B6865
:100960001344044A136001F081F81837BD4680BD76
:10097000E42300200C00002080B483B000AF0F4BB4
:1009800023F007037B600E4A7B6813600C4B002248
:100990005A600C4B42F220325A600A4B00221A6015
:1009A0007B683B603B6842F220325A603B68054AF4
:1009B0001A600C37BD465DF8047B7047C400002008
:1009C000E4230020EC23002080B483B000AF7860E3
:1009D0007B6803F108027B685A607B684FF0FF3246
:1009E0009A607B6803F108027B68DA607B6803F138
:1009F00008027B681A617B6800221A600C37BD46CA
:100A00005DF8047B704700BF80B483B000AF7860AE
:100A10007B6800221A610C37BD465DF8047B704785
:100A200080B485B000AF786039607B685B68FB603C
:100A30003B68FA685A60FB689A683B689A60FB6892
:100A40009B683A685A60FB683A689A603B687A68C3
:100A50001A617B681B685A1C7B681A601437BD4694
:100A60005DF8047B704700BF80B485B000AF78604C
:100A700039603B681B68BB60BB68B3F1FF3F03D1C3
:100A80007B681B69FB600CE07B680833FB6002E05D
:100A9000FB685B68FB60FB685B681A68BB689A422E
:100AA000F6D9FB685A683B685A603B685B683A68ED
:100AB0009A603B68FA689A60FB683A685A603B68DB
:100AC0007A681A617B681B685A1C7B681A60143745
:100AD000BD465DF8047B704780B485B000AF786098
:100AE0007B681B69FB607B685B687A6892689A60C8
:100AF0007B689B687A6852685A60FB685A687B68B2
:100B00009A4203D17B689A68FB685A607B6800222E
:100B10001A61FB681B685A1EFB681A60FB681B6839
:100B200018461437BD465DF8047B704780B485B025
:100B300000AFF860B9607A60FB68043BFB60FB685B
:100B40004FF080721A60FB68043BFB60BB6823F0C7
:100B50000102FB681A60FB68043BFB60094AFB6802
:100B60001A60FB68143BFB607A68FB681A60FB68DC
:100B7000203BFB60FB6818461437BD465DF8047BDC
:100B8000704700BF890B000080B582B000AF094BF1
:100B90001B68B3F1FF3F03D00748F22101F046FF85
:100BA0004FF0BF0383F31188BFF36F8FBFF34F8FF5
:100BB0007B60FEE7100000204849000000000000B4
:100BC000074B19680868B0E8F00F80F30988BFF395
:100BD0006F8F4FF0000080F311884EF00D0E7047BC
:100BE0000024002006480068006880F3088862B688
:100BF00061B6BFF34F8FBFF36F8F00DF00BF000000
:100C000008ED00E080B584B000AF284BFB60FB68C6
:100C10001B78DBB2BB60FB68FF221A70FB681B7895
:100C2000DBB2FB71FB79DBB223F04003DAB2204B7D
:100C30001A70204B07221A6009E01E4B1B68013B0B
:100C40001C4A1360FB79DBB25B00DBB2FB71FB7902
:100C5000DBB2DBB25BB2002BEFDB164B1B681B0277
:100C6000144A1360134B1B6803F4E063114A1360CA
:100C7000BB68DAB2FB681A700F4A0F4B1B6843F46B
:100C80007F0313600C4A0C4B1B6843F07F431360D7
:100C900000F0A8F8094B00221A60FFF7A3FFFFF746
:100CA00073FF002318461037BD4680BD00E400E006
:100CB000F8230020FC23002020ED00E0100000209D
:100CC00080B582B000AF4FF0BF0383F31188BFF34C
:100CD0006F8FBFF34F8F7B600A4B1B680133094A4C
:100CE0001360084B1B68012B09D1074B1B68DBB253
:100CF000002B04D0054840F27F1101F097FE083721
:100D0000BD4680BD1000002004ED00E04849000011
:100D100080B582B000AF0D4B1B68002B04D10C488E
:100D20004FF4C37101F082FE084B1B68013B074A78
:100D30001360064B1B68002B04D100237B607B688B
:100D400083F311880837BD4680BD00BF1000002026
:100D50004849000000000000000000000000000002
:100D6000EFF30980BFF36F8F0D4B1A6820E9F00F86
:100D700010602DE908404FF0BF0080F3118800F0AB
:100D8000DBFF4FF0000080F31188BDE808401968D0
:100D90000868B0E8F00F80F30988BFF36F8F7047E1
:100DA0000024002080B582B000AF4FF0BF0383F372
:100DB0001188BFF36F8FBFF34F8F7B6000F000FF90
:100DC0000346002B03D0064B4FF080521A600023DD
:100DD0003B603B6883F311880837BD4680BD00BF88
:100DE00004ED00E080B400AF054B43F2AF621A603F
:100DF000044B07221A60BD465DF8047B704700BFB4
:100E000014E000E010E000E080B582B000AFEFF346
:100E100005837B607B680F2B0ED90F4A7B681344D8
:100E20001B78FB700D4B1B78FA789A4204D20C4861
:100E300040F29E2101F0FAFD0A4B1B6803F4E062C8
:100E4000094B1B689A4204D9054840F2AE2101F0D3
:100E5000EDFD0837BD4680BDF0E300E0F82300203B
:100E6000484900000CED00E0FC23002080B584B070
:100E700000AF786039607B68FB60FB68002B04D1B1
:100E80002A4840F21B1101F0D1FDFFF719FFFB6862
:100E90001A68FB68DB6BF968096C01FB03F31A4401
:100EA000FB685A60FB6800229A63FB681A68FB685B
:100EB0009A60FB681A68FB68DB6B013BF968096C98
:100EC00001FB03F31A44FB68DA60FB68FF2283F836
:100ED0004420FB68FF2283F845203B68002B14D197
:100EE000FB681B69002B1AD0FB681033184600F012
:100EF000BDFF0346002B12D00D4B4FF080521A60FD
:100F0000BFF34F8FBFF36F8F09E0FB6810331846B4
:100F1000FFF75AFDFB6824331846FFF755FDFFF72E
:100F2000F7FE012318461037BD4680BD6849000012
:100F300004ED00E090B58BB002AFF860B9601346E5
:100F4000FB71FB68002B04D114484FF4C47101F00D
:100F50006DFDBB68002B02D10023FB6104E0FB6840
:100F6000BA6802FB03F3FB61FB6948331846FFF7DD
:100F70003DFCB861BB69002B0BD0BB6948337B617A
:100F8000FC79BB690093F868B9687A69234600F078
:100F900007F8BB6918462437BD4690BD6849000074
:100FA00080B584B000AFF860B9607A60FB70BB6850
:100FB000002B03D1BB69BA691A6002E0BB697A6889
:100FC0001A60BB69FA68DA63BB69BA681A64B869FF
:100FD0000121FFF74BFF1037BD4680BD80B58AB0B9
:100FE00000AFF860B9607A603B6000237B62FB6809
:100FF0003B623B6A002B04D1654840F2D92101F0E5
:1010000015FDBB68002B08D13B6A1B6C002B04D07C
:101010005F4840F2DA2101F009FD3B68022B08D15C
:101020003B6ADB6B012B04D0594840F2DB2101F015
:10103000FDFC01F0AFF80346002B07D17B68002BC5
:1010400004D0534840F2DE2101F0F0FCFFF738FEF7
:101050003B6A9A6B3B6ADB6B9A4202D33B68022B7A
:1010600029D1386AB9683A6800F012FAF8613B6A27
:101070005B6A002B10D03B6A2433184600F0F6FE62
:101080000346002B13D0434B4FF080521A60BFF33E
:101090004F8FBFF36F8F0AE0FB69002B07D03D4BEA
:1010A0004FF080521A60BFF34F8FBFF36F8FFFF77F
:1010B0002FFE012367E07B68002B03D1FFF728FE9A
:1010C000002360E07B6A002B06D107F11403184669
:1010D00000F02CFF01237B62FFF71AFE00F0B8FC42
:1010E000FFF7EEFD3B6A93F84430DBB25BB2B3F13D
:1010F000FF3F03D13B6A002283F844203B6A93F808
:101100004530DBB25BB2B3F1FF3F03D13B6A002253
:1011100083F84520FFF7FCFD07F114023B1D104644
:10112000194600F021FF0346002B24D1386A00F055
:10113000A9FA0346002B18D03B6A03F110027B6822
:101140001046194600F04CFE386A00F033FA00F001
:101150008DFC0346002B15D10E4B4FF080521A60C8
:10116000BFF34F8FBFF36F8F0CE0386A00F022FAA5
:1011700000F07CFC6AE7386A00F01CFA00F076FCAC
:10118000002300E062E718462837BD4680BD00BF57
:101190006849000004ED00E080B58CB000AFF86055
:1011A000B9607A603B60FB68BB62BB6A002B04D10C
:1011B000374840F29F3101F039FCBB68002B08D161
:1011C000BB6A1B6C002B04D031484FF4687101F0EE
:1011D0002DFC3B68022B08D1BB6ADB6B012B04D0D2
:1011E0002B4840F2A13101F021FCFFF70DFEEFF397
:1011F00011824FF0BF0383F31188BFF36F8FBFF3EA
:101200004F8FFA61BB61FB697B62BB6A9A6BBB6AF9
:10121000DB6B9A4202D33B68022B2CD1BB6A93F85A
:10122000453087F82330B86AB9683A6800F030F979
:1012300097F92330B3F1FF3F12D1BB6A5B6A002BF1
:1012400016D0BB6A2433184600F010FE0346002B6C
:101250000ED07B68002B0BD07B6801221A6007E060
:1012600097F823300133DBB2DAB2BB6A83F845204A
:101270000123FB6201E00023FB627B6A7B617B69E7
:1012800083F31188FB6A18463037BD4680BD00BF26
:101290006849000080B58AB000AFF860B9607A6034
:1012A0003B6000237B62FB683B623B6A002B04D1FE
:1012B000754840F2DC4101F0B9FBBB68002B08D156
:1012C0003B6A1B6C002B04D06F4840F2DD4101F0FB
:1012D000ADFB00F05FFF0346002B07D17B68002BBE
:1012E00004D069484FF49C6101F0A0FBFFF7E8FCD3
:1012F0003B6A9B6BFB61FB69002B46D03B6ADB685A
:10130000BB61386AB96800F02FF93B68002B21D126
:10131000FB695A1E3B6A9A633B6A1B68002B04D127
:1013200001F04CF802463B6A5A603B6A1B69002B8D
:1013300027D03B6A1033184600F098FD0346002B77
:101340001FD0524B4FF080521A60BFF34F8FBFF344
:101350006F8F16E03B6ABA69DA603B6A5B6A002B02
:101360000FD03B6A2433184600F080FD0346002B63
:1013700007D0464B4FF080521A60BFF34F8FBFF338
:101380006F8FFFF7C5FC01237AE07B68002B03D148
:10139000FFF7BEFC002373E07B6A002B06D107F148
:1013A0001003184600F0C2FD01237B62FFF7B0FC7A
:1013B00000F04EFBFFF784FC3B6A93F84430DBB24D
:1013C0005BB2B3F1FF3F03D13B6A002283F84420B4
:1013D0003B6A93F84530DBB25BB2B3F1FF3F03D118
:1013E0003B6A002283F84520FFF792FC07F11002C8
:1013F0003B1D1046194600F0B7FD0346002B31D1C6
:10140000386A00F029F90346002B25D03B6A1B6897
:10141000002B08D1FFF754FC3B6A5B68184600F0CC
:10142000D7FEFFF775FC3B6A03F124027B68104688
:10143000194600F0D5FC386A00F0BCF800F016FB45
:101440000346002B1BD1114B4FF080521A60BFF3A3
:101450004F8FBFF36F8F12E0386A00F0ABF800F0E7
:1014600005FB43E7386A00F0A5F800F0FFFA386A98
:1014700000F0F2F80346002B01D0002300E035E72E
:1014800018462837BD4680BD6849000004ED00E0DD
:1014900080B586B000AFF860B9607A6000237B61E8
:1014A000FB689B6B3B61FB681B6C002B0DD1FB68E1
:1014B0001B68002B4FD1FB685B68184600F000FFEB
:1014C0007861FB6800225A6045E07B68002B1AD1E6
:1014D000FB689A68FB681B6C1046B9681A4602F0F4
:1014E00065FBFB689A68FB681B6C1A44FB689A6092
:1014F000FB689A68FB685B689A422CD3FB681A68A1
:10150000FB689A6027E0FB68DA68FB681B6C104692
:10151000B9681A4602F04AFBFB68DA68FB681B6C84
:101520005B421A44FB68DA60FB68DA68FB681B6898
:101530009A4207D2FB685A68FB681B6C5B421A44EC
:10154000FB68DA607B68022B05D13B69002B02D077
:101550003B69013B3B613B695A1CFB689A637B69B1
:1015600018461837BD4680BD80B582B000AF7860A0
:1015700039607B681B6C002B19D07B68DA687B684C
:101580001B6C1A447B68DA607B68DA687B685B688E
:101590009A4203D37B681A687B68DA607B68DA68F2
:1015A0007B681B6C386811461A4602F0FFFA083750
:1015B000BD4680BD80B584B000AF7860FFF780FB8A
:1015C0007B6893F84530FB7313E07B685B6A002B04
:1015D0000AD07B682433184600F048FC0346002BF1
:1015E00003D000F017FD00E007E0FB7B013BDBB21E
:1015F000FB7397F90F30002BE7DC7B68FF2283F841
:101600004520FFF785FBFFF75BFB7B6893F84430D1
:10161000BB7313E07B681B69002B0ED07B68103313
:10162000184600F023FC0346002B01D000F0F2FC2A
:10163000BB7B013BDBB2BB7300E003E097F90E30EC
:10164000002BE7DC7B68FF2283F84420FFF760FB78
:101650001037BD4680BD00BF80B584B000AF786054
:10166000FFF72EFB7B689B6B002B02D10123FB60F5
:1016700001E00023FB60FFF74BFBFB6818461037C7
:10168000BD4680BD80B584B000AF7860FFF718FB21
:101690007B689A6B7B68DB6B9A4202D10123FB600B
:1016A00001E00023FB60FFF733FBFB6818461037AF
:1016B000BD4680BD80B485B000AF7860396000233E
:1016C000FB6014E00E4AFB6852F83330002B0BD15C
:1016D0000B49FB683A6841F83320094AFB68DB0094
:1016E00013447A685A6005E0FB680133FB60FB68CD
:1016F000092BE7D91437BD465DF8047B704700BF5E
:101700005C25002080B586B000AFF860B9607A60D3
:10171000FB687B61FFF7D4FA7B6993F84430DBB256
:101720005BB2B3F1FF3F03D17B69002283F8442011
:101730007B6993F84530DBB25BB2B3F1FF3F03D175
:101740007B69002283F84520FFF7E2FA7B699B6BF7
:10175000002B06D17B6924331846B9687A6800F0FB
:101760005FFB7869FFF726FF1837BD4680BD00BFD5
:1017700080B58CB004AFF860B9603B601346FB8065
:10178000FB889B001846FFF731F878617B69002BD6
:101790000ED05020FFF72AF8F861FB69002B03D028
:1017A000FB697A691A6305E07869FFF7ADF801E033
:1017B0000023FB61FB69002B13D0FA88BB6A0093FE
:1017C000FB6A0193FB69029300230393F868B968ED
:1017D0003B6800F00FF8F86900F086F80123BB6160
:1017E00002E04FF0FF33BB61BB6918462037BD46AE
:1017F00080BD00BF80B586B000AFF860B9607A6088
:101800003B60BB6A1A6B7B6803F18043013B9B0022
:1018100013443B613B6923F007033B613B6903F0E1
:101820000703002B04D02F4840F22B3101F0FEF8C3
:1018300000237B6113E0BA687B6913441978BA6AA4
:101840007B69134430330A461A71BA687B691344C2
:101850001B78002B00D105E07B6901337B617B693C
:10186000092BE8D9BB6A002283F83D203B6A052B8F
:1018700001D905233B62BB6A3A6ADA62BB6A3A6AFB
:101880001A64BB6A00225A64BB6A04331846FFF725
:10189000BBF8BB6A18331846FFF7B6F8BB6ABA6ADA
:1018A0001A613B6AC3F10602BB6A9A61BB6ABA6AF3
:1018B0005A62BB6A00229A64BB6A002283F84C20F9
:1018C0003869F9683A68FFF731F90246BB6A1A606D
:1018D0007B6A002B02D07B6ABA6A1A601837BD4651
:1018E00080BD00BF8449000080B582B000AF786041
:1018F000FFF7E6F92B4B1B6801332A4A13602A4B8A
:101900001B68002B09D1284A7B681360254B1B6894
:10191000012B10D100F092FB0DE0244B1B68002B33
:1019200009D1214B1B68DA6A7B68DB6A9A4202D8CC
:101930001D4A7B6813601E4B1B6801331C4A1360F1
:101940007B68DB6A1A46012303FA02F2194B1B6813
:101950001343184A13607B68DA6A13469B001344EA
:101960009B00154A1A447B68043310461946FFF75A
:1019700057F8FFF7CDF90D4B1B68002B0ED00A4B23
:101980001B68DA6A7B68DB6A9A4207D20B4B4FF01E
:1019900080521A60BFF34F8FBFF36F8F0837BD4679
:1019A00080BD00BFEC24002000240020F82400208B
:1019B00008250020F42400200424002004ED00E089
:1019C00080B584B002AF002300931A4B01931A48EC
:1019D0001A498C220023FFF7CBFE78607B68012B2D
:1019E00002D100F063FD78607B68012B15D14FF0C8
:1019F000BF0383F31188BFF36F8FBFF34F8F3B603B
:101A00000F4B4FF0FF321A600E4B01221A600E4B43
:101A100000221A60FFF7F6F808E07B68B3F1FF3F99
:101A200004D10A4840F2847101F000F80837BD463D
:101A300080BD00BF102500202D200000A04900001F
:101A40000C250020F8240020F02400208449000008
:101A500080B400AF044B1B680133034A1360BD46DA
:101A60005DF8047B704700BF1425002080B584B06A
:101A700000AF0023FB600023BB603F4B1B68002BC3
:101A800004D13E484FF4FD6100F0D0FFFFF718F994
:101A9000394B1B68013B384A1360374B1B68002BDE
:101AA00063D1374B1B68002B5FD030E0354BDB68D0
:101AB000DB68FB60FB6818331846FFF70DF8FB681E
:101AC00004331846FFF708F8FB68DB6A1A4601235F
:101AD00003FA02F22C4B1B6813432B4A1360FB687A
:101AE000DA6A13469B0013449B00284A1A44FB6899
:101AF000043310461946FEF793FFFB68DA6A244B5D
:101B00001B68DB6A9A4202D3224B01221A601D4BEA
:101B10001B68002BCAD1FB68002B01D000F016FB1C
:101B20001D4B1B687B607B68002B10D000F048F8D1
:101B30000346002B02D0174B01221A607B68013B41
:101B40007B607B68002BF1D1134B00221A60114B94
:101B50001B68002B09D00123BB60104B4FF0805253
:101B60001A60BFF34F8FBFF36F8FFFF7D1F8BB68D9
:101B700018461037BD4680BD14250020844900005A
:101B8000EC240020AC240020F424002004240020B5
:101B90000024002000250020FC24002004ED00E0AB
:101BA00080B483B000AF054B1B687B607B68184630
:101BB0000C37BD465DF8047B704700BFF024002061
:101BC00080B586B000AF00237B614F4B1B68002BB4
:101BD00040F089804D4B1B6801333B614B4A3B69A8
:101BE00013603B69002B1AD1494B1B681B68002B03
:101BF00004D0484840F6D91100F018FF444B1B6848
:101C0000FB60454B1B68424A1360434AFB68136004
:101C1000424B1B680133414A136000F097FA404B76
:101C20001B683A699A424FD3394B1B681B68002BDB
:101C300001D1012300E00023002B04D0384B4FF0EA
:101C4000FF321A6040E0324B1B68DB68DB68BB6028
:101C5000BB685B687B603A697B689A4203D2304A12
:101C60007B68136030E0BB6804331846FEF734FF2E
:101C7000BB689B6A002B04D0BB6818331846FEF77C
:101C80002BFFBB68DB6A1A46012303FA02F2254BDD
:101C90001B681343234A1360BB68DA6A13469B0030
:101CA00013449B00204A1A44BB680433104619466B
:101CB000FEF7B6FEBB68DA6A1C4B1B68DB6A9A4209
:101CC00001D301237B61AFE7184B1B68DA6A164921
:101CD00013469B0013449B000B441B68012B01D946
:101CE00001237B6104E0124B1B680133104A13602F
:101CF000104B1B68002B01D001237B617B691846C8
:101D00001837BD4680BD00BF14250020F0240020F8
:101D1000A424002084490000A824002004250020D9
:101D20000C250020F424002004240020002400209E
:101D3000FC2400200025002080B584B000AF224B99
:101D40001B68002B03D0214B01221A6039E01F4B86
:101D500000221A601E4B1B687B607B68B3FA83F31A
:101D6000FB70FB78C3F11F03FB601A49FA68134646
:101D70009B0013449B000B441B68002B04D11648A6
:101D800040F6F62100F052FEFA6813469B00134419
:101D90009B00104A1344BB60BB685B685A68BB6811
:101DA0005A60BB685A68BB6808339A4204D1BB6862
:101DB0005B685A68BB685A60BB685B68DB68074A47
:101DC00013601037BD4680BD14250020002500207B
:101DD000F424002004240020844900000024002072
:101DE00080B582B000AF786039607B68002B04D189
:101DF000094840F6063100F019FE084B1B681833FD
:101E000078681946FEF730FE3868012100F0EAFADA
:101E10000837BD4680BD00BF844900000024002073
:101E200080B584B000AFF860B9607A60FB68002BC1
:101E300004D10C4840F6313100F0F8FD0A4B1B6824
:101E40001833F8681946FEF7EBFD7B68002B02D0CB
:101E50004FF0FF33BB60B868796800F0C3FA103701
:101E6000BD4680BD844900000024002080B584B0B8
:101E700000AF78607B68DB68DB68BB60BB68002B09
:101E800004D1234840F6613100F0D0FDBB6818331F
:101E90001846FEF721FE1F4B1B68002B1ED1BB68A6
:101EA00004331846FEF718FEBB68DB6A1A460123A6
:101EB00003FA02F2184B1B681343174A1360BB68FE
:101EC000DA6A13469B0013449B00144A1A44BB6809
:101ED000043310461946FEF7A3FD05E0BB6818332E
:101EE0000F481946FEF79CFDBB68DA6A0D4B1B686C
:101EF000DB6A9A4205D90123FB600B4B01221A6071
:101F000001E00023FB60FB6818461037BD4680BD2A
:101F10008449000014250020F4240020042400201B
:101F2000AC240020002400200025002080B582B0D1
:101F300000AF78607B68002B04D1084840F6C131BF
:101F400000F074FD064B1A687B681A60054B1A682E
:101F50007B685A600837BD4680BD00BF84490000D9
:101F600004250020F024002080B584B000AF786004
:101F700039607B68002B04D1234840F6CB3100F058
:101F800055FD3B68002B04D11F4840F6CC3100F0D2
:101F90004DFDFEF795FE1D4B1B68BB603B681B6843
:101FA000B3F1FF3F02D10023FB6026E07B681A6893
:101FB000174B1B689A4207D07B685A68BB689A42E5
:101FC00002D80123FB6018E07B685B68BA68D21A0C
:101FD0003B681B689A420ED23B681A687B68596856
:101FE000BB68CB1A1A443B681A607868FFF79EFFFB
:101FF0000023FB6001E00123FB60FEF789FEFB6824
:1020000018461037BD4680BD84490000F0240020EA
:102010000425002080B400AF034B01221A60BD46A6
:102020005DF8047B704700BF0025002080B582B0BA
:1020300000AF786000F040F8FCE700BF80B582B0E8
:1020400000AF00237B600CE07A6813469B001344CA
:102050009B00114A13441846FEF7B6FC7B68013317
:102060007B607B68052BEFD90C48FEF7ADFC0C4874
:10207000FEF7AAFC0B48FEF7A7FC0B48FEF7A4FCF2
:102080000A48FEF7A1FC0A4B044A1A60094B044AAD
:102090001A600837BD4680BD042400207C2400203F
:1020A00090240020AC240020C0240020D82400204C
:1020B000A4240020A824002080B582B000AF28E02E
:1020C000FFF7C6FC164B1B68002B0CBF0123002337
:1020D000DBB27B60FFF7CAFC7B68002B19D1FEF7EF
:1020E000EFFD0F4BDB68DB683B603B680433184651
:1020F000FEF7F2FC0B4B1B68013B0A4A13600A4BCC
:102100001B68013B084A1360FEF702FE386800F0C6
:102110000DF8054B1B68002BD2D10837BD4680BD9A
:10212000C0240020EC240020D424002080B582B0FC
:1021300000AF78607B681B6B1846FEF7E5FB78689C
:10214000FEF7E2FB0837BD4680BD00BF80B483B018
:1021500000AF0E4B1B681B68002B01D1012300E070
:102160000023002B04D00A4B4FF0FF321A6008E026
:10217000064B1B68DB68DB687B607B685B68044A36
:1021800013600C37BD465DF8047B7047A424002023
:102190000C25002080B483B000AF0B4B1B68002BD4
:1021A00002D101237B6008E0084B1B68002B02D1A1
:1021B00002237B6001E000237B607B6818460C37BC
:1021C000BD465DF8047B7047F824002014250020EC
:1021D00080B584B000AF78607B68FB607B68002BC3
:1021E00064D0FB68DA6A334B1B68DB6A9A425DD2C3
:1021F000FB689B69002B06DB2E4B1B68DB6AC3F177
:102200000602FB689A61FB685969FB68DA6A134643
:102210009B0013449B00284A1344994201D1012397
:1022200000E00023002B3CD0FB6804331846FEF787
:1022300053FC0346002B15D1FB68DA6A1E4913468E
:102240009B0013449B000B441B68002B0AD1FB68C6
:10225000DB6A1A4601239340DA43184B1B6813408C
:10226000164A1360134B1B68DA6AFB68DA62FB6874
:10227000DB6A1A46012303FA02F2104B1B68134370
:102280000E4A1360FB68DA6A13469B0013449B00F6
:10229000094A1A44FB68043310461946FEF7C0FB8E
:1022A00004E0044B1B68DA6AFB68DA621037BD464B
:1022B00080BD00BF0024002004240020F42400205E
:1022C00080B584B000AF78607B68BB600023FB60A2
:1022D0007B68002B64D0354B1B68BA689A4204D0E7
:1022E000334840F6C76100F0A1FBBB685B6C002B74
:1022F00004D12F4840F6C96100F098FBBB685B6CC5
:102300005A1EBB685A64BB68DA6ABB681B6C9A4287
:1023100046D0BB685B6C002B42D1BB6804331846C7
:10232000FEF7DAFB0346002B15D1BB68DA6A2149B8
:1023300013469B0013449B000B441B68002B0AD1DF
:10234000BB68DB6A1A4601239340DA431A4B1B68C9
:102350001340194A1360BB681A6CBB68DA62BB6829
:10236000DB6AC3F10602BB689A61BB68DB6A1A4686
:10237000012303FA02F2104B1B6813430E4A136049
:10238000BB68DA6A13469B0013449B00094A1A444F
:10239000BB68043310461946FEF742FB0123FB607D
:1023A000FB6818461037BD4680BD00BF00240020E2
:1023B0008449000004240020F424002080B400AFED
:1023C000074B1B68002B04D0054B1B685A6C01326D
:1023D0005A64034B1B681846BD465DF8047B704782
:1023E0000024002080B584B000AF78603960284BAD
:1023F0001B68FB60274B1B6804331846FEF76CFB19
:102400000346002B0BD1234B1B68DB6A1A460123C2
:102410009340DA43204B1B6813401F4A13607B68CC
:10242000B3F1FF3F0AD13B68002B07D0194B1B6863
:1024300004331A481946FEF7F3FA26E0FA687B6877
:102440001344BB60134B1B68BA685A60BA68FB68D8
:102450009A4209D2124B1A680E4B1B68043310467D
:102460001946FEF701FB10E00E4B1A68094B1B687A
:10247000043310461946FEF7F7FA0B4B1B68BA688F
:102480009A4202D2084ABB6813601037BD4680BD2D
:10249000F024002000240020F4240020D824002070
:1024A000A8240020A42400200C25002080B584B09E
:1024B00002AF00237B6000F083FA0E4B1B68002BF9
:1024C0000AD0052300930C4B01930C480C498C2235
:1024D0000023FFF74DF978607B68002B04D1094891
:1024E00040F2331100F0A2FA7B6818460837BD4667
:1024F00080BD00BF482500204C250020212600007B
:10250000A8490000B049000080B588B000AFF8606D
:10251000B9607A603B600023FB61FB68002B04D14B
:102520001F484FF4D37100F081FA1E4B1B68002B3B
:1025300030D0BB683B617B687B61FB68BB61BB687B
:10254000052B1CDCFFF726FE0346022B0BD1154B97
:102550001A6807F1100310461946BA6A0023FEF7FD
:102560003DFDF86116E00F4B1A6807F110031046A5
:10257000194600220023FEF731FDF8610AE0094BFD
:102580001A6807F11003104619463A680023FEF74F
:1025900003FEF861FB6918462037BD4680BD00BFC9
:1025A000B04900004825002080B586B002AF7860B1
:1025B0003960194B1B68DB68DB68FB60FB68043320
:1025C0001846FEF789FAFB68DB69012B1DD1FB6811
:1025D0009A697B681344F86819463A687B6800F08A
:1025E000C3F80346002B10D000230093F8680021A5
:1025F0007A680023FFF788FFB860BB68002B04D11E
:1026000006484FF4027100F011FAFB685B6AF86843
:1026100098471037BD4680BD40250020B0490000D6
:1026200080B584B000AF786007F10803184600F069
:1026300057F8F860BB68F868194600F003F800F036
:10264000D5F8F1E780B584B000AF78603960FFF766
:10265000FFF907F10803184600F066F8F860BB6858
:10266000002B31D13B68002B0AD17A68FB689A4273
:1026700006D8FFF7FBF97868F968FFF795FF25E0C2
:102680003B68002B08D0134B1B681B68002B0CBF4A
:1026900001230023DBB23B600F4B19687A68FB68AB
:1026A000D31A084619463A68FFF72CF8FFF7DEF907
:1026B0000346002B0AD1094B4FF080521A60BFF33A
:1026C0004F8FBFF36F8F01E0FFF7D0F91037BD4692
:1026D00080BD00BF442500204825002004ED00E017
:1026E00080B485B000AF78600E4B1B681B68002B70
:1026F0000CBF01230023DBB21A467B681A607B689B
:102700001B68002B05D1074B1B68DB681B68FB604F
:1027100001E00023FB60FB6818461437BD465DF8F6
:10272000047B70474025002080B584B000AF7860FE
:10273000FFF736FAF8600B4B1B68FA689A4205D22D
:1027400000F0E2F87B6801221A6002E07B68002258
:102750001A60044AFB681360FB6818461037BD46D0
:1027600080BD00BF5025002080B586B000AFF86066
:10277000B9607A603B6000237B61FB68BA685A608D
:10278000FB68FA681A61BA687B689A4212D87A685C
:102790003B68D21AFB689B699A4202D301237B6192
:1027A0001BE0104B1A68FB68043310461946FEF70D
:1027B0005BF912E07A683B689A4206D2BA683B68D5
:1027C0009A4202D301237B6107E0074B1A68FB683A
:1027D000043310461946FEF747F97B691846183747
:1027E000BD4680BD442500204025002080B58AB02C
:1027F00002AF73E0BB68002B70DB3B69FB61FB69D8
:102800005B69002B04D0FB6904331846FEF764F9BA
:102810003B1D1846FFF788FFB861BB68092B5CD8E1
:1028200001A252F823F000BF5128000051280000F7
:1028300051280000DD280000A5280000D328000052
:102840005128000051280000DD280000A5280000C4
:10285000FA68FB699B691A44FB68F8691146BA6912
:10286000FFF782FF0346002B1BD0FB695B6AF86908
:102870009847FB69DB69012B13D1FA68FB699B69F7
:102880001A4400230093F86900210023FFF73CFE5F
:1028900078617B69002B04D1194840F2213100F0A6
:1028A000C5F81BE0FA68FB699A61FB699B69002B1C
:1028B00004D113484FF44E7100F0B8F8FB699A69DF
:1028C000BB691344F8691946BA69BB69FFF74CFF45
:1028D00004E0F869FEF718F800E000BF094B1A6839
:1028E00007F108031046194600220023FEF7D2FC28
:1028F0000346002B7FF47EAF2037BD4680BD00BF6E
:10290000B04900004825002080B588B002AF3FE004
:10291000284B1B68DB681B687B61264B1B68DB68E8
:10292000DB683B613B6904331846FEF7D5F83B6929
:102930005B6A386998473B69DB69012B28D13B69A1
:102940009A697B691344FB60FA687B699A420ED9E5
:102950003B69FA685A603B693A691A61154B1A6813
:102960003B69043310461946FEF77EF810E0002359
:102970000093386900217A690023FFF7C5FDB8602C
:10298000BB68002B04D10C4840F2923100F04EF8A5
:10299000084B1B681B68002BBAD1064B1B687B6079
:1029A000064B1B68034A1360044A7B6813601837A0
:1029B000BD4680BD40250020B049000044250020D0
:1029C00080B500AFFEF77CF9124B1B68002B1DD1C0
:1029D0001148FDF7F9FF1148FDF7F6FF104B0E4ABD
:1029E0001A60104B0D4A1A600A200C210022FEF7D3
:1029F000A1FA0246074B1A60064B1B68002B05D054
:102A0000044B1B6818460849FEF754FEFEF780F990
:102A100080BD00BF48250020182500202C2500205F
:102A20004025002044250020D049000080B483B018
:102A300000AF78603960FEE780B487B000AFF8601F
:102A4000B9607A60FB6803F10473DA00BB68134471
:102A50009B007B617B697A681A601C37BD465DF814
:102A6000047B704780B485B000AF786039607B68C4
:102A700003F10473DA003B6813449B00FB60FB68BE
:102A80001B6818461437BD465DF8047B704700BFCD
:102A900080B584B000AF78607B68002B03D07B6882
:102AA000B3F5004F04D9084840F29661FFF7BEFF26
:102AB0007B68B3FA83F3C3F11F03FB60FB6818461E
:102AC0001037BD4680BD00BFD849000080B400AFBC
:102AD000044BDB6C1B0EDBB21846BD465DF8047B75
:102AE000704700BFB081E00F80B400AF054BDB6CD6
:102AF00003F47F031B0CDBB21846BD465DF8047B74
:102B0000704700BFB081E00F80B582B000AFFFF723
:102B1000EBFF03464A2B04D0792B02D0482B21D05F
:102B200022E0164B1B699BB203F03F039BB21B02D2
:102B3000FB80124B9B6903F0F0039AB2FB881343AE
:102B4000FB800E4BDB6903F0F0031B099AB2FB8894
:102B50001343FB80FB88B3F5017F01D3084B09E0E9
:102B6000084B07E0074B05E007484FF48771FFF774
:102B70005DFF002318460837BD4680BDD0FF0FE03B
:102B800000366E010048E8013C4A000080B584B080
:102B900000AF78600123FB60FFF7B6FF02467B6859
:102BA0009A4204D30023FB600023BB600BE0FFF7D5
:102BB000ABFF03465A007B689A4202D30123BB60F5
:102BC00001E00223BB6008481E21FA68FFF734FFCA
:102BD0000549054B5B6823F48072BB681B021343F5
:102BE0004B601037BD4680BD00800C4080B582B080
:102BF00000AF05481E21FFF735FF78607B68184657
:102C00000837BD4680BD00BF00800C4080B582B053
:102C100000AF244B5B6903F4E063B3F5007F1CD085
:102C2000B3F5007F05D8002B25D0B3F5807F1FD0EA
:102C30002AE0B3F5C06F24D0B3F5E06F1ED0B3F532
:102C4000407F21D1FFF742FF0346122B02D9164BDA
:102C50007B6021E0154B7B601EE0FFF737FF0346EA
:102C6000122B02D9124B7B6016E0124B7B6013E0F3
:102C7000114B7B6010E0114B7B600DE0104B7B60D3
:102C80000AE0104B7B6007E00F484FF4C671FFF776
:102C9000CDFE00237B6000BF7B6818460837BD4629
:102CA00080BD00BF00800C40804F120040420F00EA
:102CB00040B56400C0CF6A00C0D8A700809FD5008F
:102CC000406F4001003FAB013C4A000080B582B03C
:102CD00000AF0F4800F046FA0346FB70FB78072B65
:102CE00005D0092B07D1FDF7A1FA78600BE0FFF7BB
:102CF0008DFF786007E007484FF4E371FFF796FE19
:102D000000237B6000BF7B6818460837BD4680BD46
:102D100006000C003C4A000090B585B000AF78601A
:102D20000023BB607B683B4A934208D03A4A9342F7
:102D300005D03A4840F2B531FFF778FE00E000BF19
:102D4000786800F00FFA0346FB607B68314A9342D3
:102D500003D0314A934206D00CE0314B9B6A03F01A
:102D60000303FB600CE02E4B9B6A03F00C039B08F3
:102D7000FB6005E029484FF47971FFF757FE00BF6B
:102D8000FB68032B39D801A252F823F0C32D0000B1
:102D90009D2D0000A52D0000AD2D0000FDF7CCFA03
:102DA000B86032E0FDF7DCFAB8602EE0FDF724FAF7
:102DB0000446FFF71BFF0346013324FA03F3BB600D
:102DC00023E00023BB607B68124A934203D07B68F8
:102DD000114A934210D1124B9A6A7B680D498B427B
:102DE00001D1102300E0142322FA03F3002B03D0B7
:102DF000FDF7ACFAB86008E007E0084840F20E4181
:102E0000FFF714FE0023BB6000BFBB6818461437F1
:102E1000BD4690BD02001A0003001C003C4A0000A1
:102E200000800C4080B483B000AF7860094B5B6DCC
:102E300003F00103002B00D006E000BF054B1A6D24
:102E40007B681340002BF9D10C37BD465DF8047B3D
:102E5000704700BF00800C4080B582B000AF1048C2
:102E600000F080F90346FB70FB78032B07D0092B99
:102E700009D0022B0BD1FDF773FA78600AE0FDF759
:102E80005BFA786006E0FDF7D1F9786002E0002394
:102E90007B6000BF7B6818460837BD4680BD00BF19
:102EA0000723220080B586B000AF78600B46FB7028
:102EB00000233B617B681B0A03F00F03013B092BD6
:102EC00033D801A252F823F0052F00000B2F000089
:102ED000F12E00002B2F00002B2F0000112F0000DF
:102EE0001B2F00002B2F00002B2F0000252F000090
:102EF0001B4B7B611B4800F043F803461846FFF765
:102F000045FE18E0184B7B6115E0184B7B6112E021
:102F1000174B7B6101233B610DE0164B7B61102356
:102F20003B6108E0144B7B6105E014484FF4FB6102
:102F3000FFF77CFD10E07B681B0B03F01F03FB60B9
:102F40003B69002B02D03869FFF76CFFFB7878698A
:102F5000F9681A46FFF770FD1837BD4680BD00BFFF
:102F600040800C400043020008800C4044800C402C
:102F700058800C4060800C4078800C403C4A000037
:102F800090B585B000AF78607B6803F47813B3F533
:102F9000B01F00F0AB80B3F5B01F1AD8B3F5402FC7
:102FA00000F0BF80B3F5402F08D8B3F5003F3CD008
:102FB000B3F5802F2DD0002B27D0BEE0B3F5801FB6
:102FC0003CD0B3F5A01F47D0B3F5602F00F0AD8023
:102FD000B3E0B3F5081F00F0AC80B3F5081F0AD8C2
:102FE000B3F5D01F25D0B3F5E01F7AD0B3F5C01FDD
:102FF00000F08980A1E0B3F5201F4ED0B3F5281F63
:1030000062D0B3F5181F35D097E0FDF70FF9F860DF
:103010009BE0FDF70BF9F8604E4B9B6803F00F0344
:103020001A46FB68D340FB608FE0FDF7E5F8F860D7
:103030008BE04948FFF770FEF86086E04648FFF7EE
:103040006BFEF860434B9B6E03F0F0031B091A46BE
:10305000FB68D340FB6078E03F48FFF75DFEF86017
:103060003C4B9B6E03F470631B0A1A46FB68D3400B
:10307000FB606AE03848FFF74FFEF860354B9B6E07
:1030800003F440531C0B1020FFF702FD03462344BA
:103090001A46FB68D340FB6057E02F48FFF73CFE21
:1030A000F8602C4B9B6E03F440531B0B1A46FB68D5
:1030B000D340FB60274BDB6F03F007030133FA6853
:1030C000B2FBF3F3FB6040E02348FFF725FEF86016
:1030D000204B9B6E03F003031A46FB68D340FB6052
:1030E00033E01E48FFF718FEF8602EE01B48FFF79C
:1030F00013FEF860174B1B6F03F003031A46FB68BF
:10310000D340FB6021E01548FFF706FEF860114B45
:103110001B6F03F030031B091A46FB68D340FB60AA
:1031200013E0FFF7D3FDF8600FE0FFF76FFDF860E5
:103130000BE0FFF791FEF86007E0094840F6CC018C
:10314000FFF774FC0023FB6000BFFB6818461437D0
:10315000BD4690BD00800C4002001A0003001C0018
:103160003C4A000080B584B000AF78600123FB7357
:103170007B6803F00F03BB60BB68013B062B00F2CA
:10318000938001A252F823F0A5310000DB3100004A
:1031900017320000A9320000A932000053320000AB
:1031A00075320000474BDB6A03F47053B3F5805F60
:1031B00009D0B3F5005F03D0B3F5006F06D008E087
:1031C0000223FB7308E00323FB7305E00423FB7376
:1031D00002E00523FB7300BF6EE03A4B9B6A03F0ED
:1031E0000303022B06D0032B07D0012B08D10323A6
:1031F000FB730FE00223FB730CE00623FB7309E073
:10320000304B9B6A03F48033002B02D00A23FB73FC
:1032100000E000BF50E02B4B9B6A03F00C03082B2F
:1032200006D00C2B07D0042B08D10323FB730FE02F
:103230000223FB730CE00623FB7309E0214B9B6A1E
:1032400003F48013002B02D00A23FB7300E000BFBD
:1032500032E01C4B1B6803F08053002B03D0B3F10A
:10326000805F03D028E00723FB7302E00923FB7390
:1032700000BF21E0134BDB6A03F46033B3F5803FFA
:1032800008D0B3F5003F08D0B3F5004F08D10923AB
:10329000FB7308E00223FB7305E00323FB7302E0EA
:1032A0000123FB7300BF07E007484FF44761FFF7B6
:1032B000BDFB0023FB7300BFFB7B18461037BD46E8
:1032C00080BD00BF00800C403C4A000080B483B049
:1032D00000AFEFF310833B603B687B6072B67B68A6
:1032E00018460C37BD465DF8047B704780B483B048
:1032F00000AF78607B68002B00D162B60C37BD460A
:103300005DF8047B704700BF80B582B000AF034614
:103310003960FB71FB79002B1FD0FB79012B19D091
:10332000FB79022B13D0FB79032B0DD0FB79042BF7
:1033300007D0FB79052B02D141F6FF730FE0002384
:103340000DE04FF6FF730AE04FF6FF7307E04FF60C
:10335000FF7304E04FF6FF7301E04FF6FF733A6826
:10336000134103F00103002B04D10B4840F2593103
:10337000FFF75CFB0949FA793B68012000FA03F387
:1033800018461346DB0013449B000B44103358606F
:103390000837BD4680BD00BF504A000000600040B5
:1033A00080B582B000AF03463960FB71FB79002B1A
:1033B0001FD0FB79012B19D0FB79022B13D0FB799D
:1033C000032B0DD0FB79042B07D0FB79052B02D101
:1033D00041F6FF730FE000230DE04FF6FF730AE0A4
:1033E0004FF6FF7307E04FF6FF7304E04FF6FF73ED
:1033F00001E04FF6FF733A68134103F00103002B1D
:1034000004D10B4840F28631FFF710FB0949FA79E5
:103410003B68012000FA03F318461346DB0013440F
:103420009B000B44103318600837BD4680BD00BFB9
:10343000504A00000060004090B585B000AFB96010
:103440007B600346FB731346BB73FB7B002B1FD0D3
:10345000FB7B012B19D0FB7B022B13D0FB7B032BB7
:103460000DD0FB7B042B07D0FB7B052B02D141F653
:10347000FF730FE000230DE04FF6FF730AE04FF6F5
:10348000FF7307E04FF6FF7304E04FF6FF7301E0B0
:103490004FF6FF73BA68134103F00103002B04D108
:1034A00037484FF48571FFF7C1FABB7B002B0DD075
:1034B0007B68002B05D0FB7B1846B968FFF770FFCF
:1034C00004E0FB7B1846B968FFF71EFFBB68072BBB
:1034D0001CD82C4CFA7B2B48F97B0B46DB000B44A9
:1034E0009B0003445968BB689B0018460F23834028
:1034F000DB430B40B97BB868800081401943134619
:10350000DB0013449B002344596024E01D4CFA7BEC
:103510001C48F97B0B46DB000B449B00034408333B
:103520001968BB6803F18043083B9B0018460F23D2
:103530008340DB431940B87BBB6803F18043083B01
:103540009B0000FA03F319431346DB0013449B006E
:10355000234408331960BB7B002B0DD17B68002B03
:1035600005D0FB7B1846B968FFF71AFF04E0FB7B28
:103570001846B968FFF7C8FE1437BD4690BD00BFB6
:10358000B44A00000060004080B586B000AFF8602B
:10359000B9607A60FB707B68002B03D14248B72189
:1035A000FFF744FABB68002B03D14048FFF7E8FC63
:1035B000B860FB78202B15D0202B02DC002B05D027
:1035C00037E0402B1AD0602B27D032E0BB681A09B5
:1035D0007B689A4203D23448DD21FFF727FA102393
:1035E0007B612BE0BB68DA087B689A4203D22E48E5
:1035F000E221FFF71BFA08237B611FE0BB682C4A1E
:10360000A2FB03239A087B689A4203D22648E7214B
:10361000FFF70CFA06237B6110E0BB689A087B6811
:103620009A4203D22048EC21FFF700FA04237B6181
:1036300004E01D48F221FFF7F9F932E0BB689A0077
:103640007B69796801FB03F35B0813443B617B6989
:103650007A6802FB03F33A69B2FBF3F33B613B691F
:10366000043B3B613B699B013B613B69114A9342CF
:1036700004D90D484FF48471FFF7D8F93A690D4B1E
:1036800013403B61FB681B6823F06002FB681A6013
:10369000FB681A68FB781A43FB681A60FB683A6992
:1036A0005A611837BD4680BDC84A000040810400F9
:1036B000ABAAAAAAC0FF1F0080B584B000AF786093
:1036C0000B46FB707B68144A934214D07B68134A04
:1036D000934210D07B68124A93420CD07B68114A07
:1036E000934208D07B68104A934204D00F4840F2BE
:1036F0000F21FFF79BF9FB78DB43FB60FB6803F0CE
:103700000503FB60FB685A007B68DA60FA787B6827
:10371000DA601037BD4680BD00C0004000C40040E4
:1037200000C8004000E0004000E40040C84A00003B
:1037300080B582B000AF786039607B68264A9342DA
:1037400014D07B68254A934210D07B68244A934268
:103750000CD07B68234A934208D07B68224A93426C
:1037600004D0224840F23621FFF760F9786800F073
:103770003FF83B689B7C002B05D07B681B6843F0BF
:1037800080427B681A603B68DB7C002B07D03B687B
:103790001B7D43F01003DBB21A467B689A653B68D9
:1037A0005B7B1A463B681B8A13433A68D2891A43EB
:1037B0007B685A603B6859683B689A683B681B7B2A
:1037C0007868FFF7E1FE3B681B781A467B68DA6091
:1037D0000837BD4680BD00BF00C0004000C40040A7
:1037E00000C8004000E0004000E40040C84A00007B
:1037F00080B582B000AF78607B68254A934214D0D0
:103800007B68244A934210D07B68234A93420CD0B1
:103810007B68224A934208D07B68214A934204D0B5
:10382000204840F24731FFF701F97B6840F6AA6271
:10383000DA607B6800221A607B6841F205025A60F8
:103840007B6800229A607B6800225A617B680022B4
:10385000DA647B6841F6F9729A647B6800225A65E3
:103860007B680B4A934202D17B6800221A657B6811
:1038700000229A657B68074A934203D07B68064A18
:10388000934202D17B680022DA650837BD4680BDCD
:1038900000C0004000C4004000C8004000E00040FC
:1038A00000E40040C84A000080B483B000AF7860F4
:1038B00000BF7B681B6903F08003002BF9D07B6895
:1038C000DB69DBB218460C37BD465DF8047B7047F8
:1038D00080B483B000AF78600B46FB7000BF7B689C
:1038E0001B6903F04003002BF9D0FA787B685A6318
:1038F0000C37BD465DF8047B704700BF80B582B0D1
:1039000002AFFCF79BFE0120FCF782FE012300932F
:1039100000230193054806498C220023FDF728FF68
:10392000FEF74EF800231846BD4680BD353900002D
:10393000DC4A000080B582B000AF7860024800F039
:103940009FF90837BD4680BDE04A000008B5074B27
:10395000044613B10021AFF30080054B1868836A59
:1039600003B198472046FCF713FD00BF000000009C
:103970005C4B0000124B70B51D6804461E4625B115
:10398000AB6913B9284600F063F80E4B9C4201D195
:103990006C6808E00C4B9C4201D1AC6803E00B4B17
:1039A0009C4208BFEC68B4F90C3013B1B4F90E00B6
:1039B00070BD336809221A604FF0FF3070BD00BF40
:1039C00074000020F84A0000184B0000384B00003B
:1039D000014900F0A7B800BFC53F000010B504467C
:1039E000002303604360836081814366C281036179
:1039F0004361836119465C30082200F0E2F8054B10
:103A000024626362044BA362044BE362044B2363AE
:103A100010BD00BFE13D0000033E00003B3E000042
:103A20005F3E000070B568234D1E5D430E4605F1F4
:103A3000740100F0CFF8044640B1002180E8420054
:103A40000C30A06005F1680200F0BBF8204670BDA4
:103A5000836910B5044633BB8364C3640365124BAA
:103A6000124A1B688262984204BF0123836100F0FE
:103A70001FF86060204600F01BF8A060204600F0B0
:103A800017F80421E06000226068FFF7A7FFA06834
:103A900009210122FFF7A2FFE06812210222FFF7AD
:103AA0009DFF0123A36110BD5C4B0000D1390000D4
:103AB000F8B51B4B07461E68B36913B93046FFF7CC
:103AC000C7FF4836B4687368013B04D4B4F90C509E
:103AD00075B16834F8E733682BB938460421FFF72D
:103AE000A1FF306008B13668ECE70C233B60F8BDFD
:103AF0004FF6FF73E3810123A38165662560A5600E
:103B0000656025616561A56104F15C0029460822B4
:103B100000F057F86563A563A564E5642046F8BD29
:103B20005C4B00002DE9F8438046894600F14804CB
:103B3000002694B1A5686768013F0CD4AB89012BBE
:103B400007D9B5F90E30013303D040462946C8479E
:103B500006436835F0E72468EBE73046BDE8F883B4
:103B60000E4B70B51E460E4C0025E41AA410A5425B
:103B700004D056F8253098470135F8E700F0BEFE2E
:103B8000084B094C1E46E41AA4100025A54204D097
:103B900056F8253098470135F8E770BD78000020C9
:103BA00078000020780000207C00002010B5431E23
:103BB0000A44914204D011F8014B03F8014FF8E791
:103BC00010BD03460244934202D003F8011BFAE7FA
:103BD0007047000070B5CC1C24F0030408340C2C92
:103BE00038BF0C24002C064603DA0C233360002077
:103BF00070BD8C42F9D3204A136810461946A1B112
:103C00000A68121B0ED40B2A03D90A608B188C5039
:103C10001FE08B420BBF5A684A6802605A6018BFA7
:103C20000B4616E00B464968E9E7144D2B681BB9B3
:103C3000304600F03DF828603046214600F038F864
:103C4000421C0346D1D0C51C25F0030585420AD18C
:103C50001C6003F10B001A1D20F00700821A0AD025
:103C60005142995070BD3046E91A00F021F80130F8
:103C7000BBD02B46ECE770BD582500205425002012
:103C80000FB40A4B13B51C6824B1A36913B92046BD
:103C9000FFF7DEFE05AB2046A168049A019300F011
:103CA00041FA02B0BDE8104004B070477400002033
:103CB00038B5064C0023054608462360FCF7C4FBD4
:103CC000431C02D1236803B12B6038BDAC25002012
:103CD0002DE9F0411D463D4B04461E680F469046B7
:103CE00026B1B36913B93046FFF7B2FE384B9C4298
:103CF00001D1746808E0374B9C4201D1B46803E0FD
:103D0000354B9C4208BFF468B8F1020F5AD8002D19
:103D100058DB3046214600F055F900236360A3616B
:103D2000A3891B0603D53046216900F08FF9A389CA
:103D3000B8F1020F23F08303A38112D037BB002D0B
:103D400008BF4FF48065284600F078F90746C8B9E7
:103D50004FF4806000F072F9074688B94FF0FF30E9
:103D600000E00020A38943F00203A3810023A360A5
:103D700004F147032360236101236361BDE8F081FF
:103D80004FF48065A38943F08003A381B8F1010F4C
:103D900001BFA38943F00103A3816B4208BFA36164
:103DA0000E4BB362A389276003F0080080B227613D
:103DB000656148B113F0030F18BF0025A56000200E
:103DC000BDE8F0814FF0FF30BDE8F08174000020C5
:103DD000F84A0000184B0000384B0000D1390000B1
:103DE00010B50C46B1F90E1000F03AFC0028ABBF3C
:103DF000636DA3891B1823F48053ACBF6365A38153
:103E000010BD2DE9F0411D468B890746DB050C46A8
:103E1000164605D5B1F90E100022022300F0FCF879
:103E2000A389384623F48053A381B4F90E10324697
:103E30002B46BDE8F04100F01FB810B50C46B1F9B3
:103E40000E1000F0E9F8431CA38915BF606523F448
:103E5000805343F48053A38118BFA38110BDB1F9EF
:103E60000E1000F01BB8034613F8012B002AFBD1FB
:103E7000181A01387047000038B5074C0546002075
:103E80002060084611461A46FCF71CFB431C02D171
:103E9000236803B12B6038BDAC25002038B5064C33
:103EA0000023054608462360FCF766FA431C02D14E
:103EB000236803B12B6038BDAC2500208A892DE929
:103EC000F041054610070C4657D44B68002B02DC26
:103ED0000B6C002B18DDE66AB6B102F480520023A9
:103EE00092B22F682B600AB1626D10E0216A2846F9
:103EF0000123B047411C024609D12B683BB11D2B61
:103F000001D0162B46D12F600020BDE8F081A38997
:103F10005B0705D56368D21A636B0BB1236CD21AA9
:103F2000E66A00232846216AB047461CA38905D1CA
:103F30002A681AB11D2A01D0162A19D100226260FE
:103F40002269D904226004D5421C01D12B6803B92F
:103F50006065616B2F600029D6D004F1440399425B
:103F600002D0284600F072F800206063BDE8F081BE
:103F700043F04003A381BDE8F0810F69002FC3D057
:103F800093070E680CBF4B690023C7EB06080F6050
:103F90008B6012E0A3894FF0FF3043F04003A38110
:103FA000BDE8F0812846216A3A464346A66AB047F2
:103FB0000028EFDD0744C0EB0808B8F1000FF1DC82
:103FC000A2E7000038B50B6905460C46DBB118B115
:103FD00083690BB9FFF73CFD0C4B9C4201D16C6827
:103FE00008E00B4B9C4201D1AC6803E0094B9C42BA
:103FF00008BFEC68B4F90C302BB128462146BDE867
:104000003840FFF75BBF002038BD00BFF84A000012
:10401000184B0000384B000038B5074C054600200F
:104020002060084611461A46FCF7D4F9431C02D119
:10403000236803B12B6038BDAC250020024B01463C
:104040001868FFF7C7BD00BF7400002030B5002915
:104050003CD051F8042C0B1F1D49002AB8BF9B18F7
:104060000A680C4612B95A600B6030BD93420DD2FB
:1040700019685818904201BF5A5852181A6042687D
:1040800023605A6030BD994203D80A46516800291E
:10409000F9D1146815199D420AD11B682344D01820
:1040A0008842136012D10868034413604B680CE027
:1040B00002D90C23036030BD1C681819884201BF67
:1040C00008684968001918605960536030BD00BF26
:1040D00058250020936810B5013B002B936009DA46
:1040E0009469A34202DBCBB20A2B03D1BDE8104096
:1040F00000F0C8BA1368581C10601970C8B210BD1F
:10410000F8B506460F461446D518AC4208D03046DE
:1041100014F8011B3A46FFF7DDFF431CF5D100E020
:104120000020F8BD2DE9F0439DB00D469046039365
:10413000064618B183690BB9FFF78AFC754B9D429F
:1041400001D1756808E0744B9D4201D1B56803E068
:10415000724B9D4208BFF568AB891C070AD52B69D5
:1041600043B10023099320238DF8293030238DF8A3
:104170002A3041E03046294600F0D8FA0028F0D035
:104180004FF0FF30C2E0039A0134111D1268039111
:10419000002ABBBF524243F0020307920792B8BF06
:1041A000049323782E2B7BD0DFF880812178404642
:1041B000032200F073FB38B1049AC8EB00004023DF
:1041C000834013430493013421785548062204F1B7
:1041D00001088DF8281000F061FB002800F08580B0
:1041E000504B002B78D1039B073323F00703083390
:1041F0000393099B3B44099343461C4613F8012B48
:104200001AB9B4EB08090ED002E0252AF5D1F8E777
:104210003046294642464B46FFF772FF013070D0C8
:10422000099B4B4409932378002B6AD000234FF05D
:10423000FF3204930793059206938DF853301A9337
:1042400004F101084446DFF8E89021784846052249
:1042500000F024FB08F10108049B30B1C9EB000019
:104260000122824013430493ECE7D80644BF202286
:104270008DF85320190744BF2B228DF85320227844
:104280002A2A80D0234607991C4622780133303AE7
:10429000092A03D80A2000FB0121F5E7079180E7EE
:1042A00063782A2B0AD1039B02341A1D1B680392E0
:1042B000002BB8BF4FF0FF33059375E7611C002258
:1042C0000C4623780131303B092B03D80A2000FB30
:1042D0000232F5E7059267E703AB0093304604A985
:1042E0002A46114BAFF3008007E003AB0093304642
:1042F00004A92A460C4B00F093F8421C07467FF4B1
:1043000078AFAB895B063FF53BAF09981DB0BDE8C0
:10431000F08300BFF84A0000184B0000384B000043
:104320006A4B00000000000001410000664B0000E5
:10433000604B00002DE9F84391461F468A680B69DF
:1043400006469342B8BF1346C9F8003091F843209F
:104350000C46DDF8208012B10133C9F80030236823
:10436000990642BFD9F800300233C9F800302568F9
:1043700015F006051CD094F843302268003318BFAE
:10438000012392061FD5E118302081F843005A1C02
:1043900094F845102244023382F8431013E030466B
:1043A000394604F119020123C047013007D0013515
:1043B000E368D9F800209B1A9D42F0DBDBE74FF061
:1043C000FF30BDE8F8833046394604F14302C04768
:1043D0000130F4D02268D9F80050E36802F00602F8
:1043E000042A08BF5D1B2269A3680CBF25EAE57596
:1043F00000259342C4BF9B1AED184FF00009A94550
:104400000ADA3046394604F11A020123C047013066
:10441000D5D009F10109F2E70020BDE8F8830000DA
:104420002DE9FF410C461746227E98466E2A064625
:104430000A9B01F1430100F0B08012D8632A23D017
:104440000AD8002A00F0BD80582A40F0CC8084F8B9
:104450004520DFF804E257E0642A1ED0692A1CD008
:10446000C1E0732A00F0B18009D86F2A2ED0702ADB
:1044700040F0B980226842F0200222603FE0752AB5
:1044800024D0782A3BD0AEE01A6804F14205111D11
:104490001960136884F84230A9E020681A6810F0A7
:1044A000800F02D0101D186008E010F0400F02F1DC
:1044B0000400186002D0B2F9003000E01368002B4D
:1044C0003EDA2D225B4284F8432039E020681A68E6
:1044D00010F0800F02D0101D186007E010F0400FA0
:1044E00002F10400186001D0138800E01368227EF6
:1044F000DFF864E16F2A0CBF08220A221CE0782250
:10450000DFF858E184F845202268186812F0800F1F
:1045100000F104051D6003D1550601D5038800E0B4
:104520000368D00744BF42F0200222601BB9226812
:1045300022F0200222601022002084F8430002E0D2
:10454000DFF814E10A226568002DA8BF2068A56085
:10455000A4BF20F00400206003B965B10D46B3FB91
:10456000F2F002FB10331EF8033005F8013D03465C
:104570000028F4D100E00D46082A0BD12368DA07A1
:1045800008D5236962689A42DEBF302305F8013CF2
:1045900005F1FF35491B21612EE025681A6815F0E9
:1045A000800F606903D0151D1D60136808E015F0C9
:1045B000400F02F104051D60136801D0188000E06F
:1045C0001860002323610D4616E01A68111D19605A
:1045D000156800212846626800F060F908B1401BA8
:1045E0006060636804E004F1420584F8422001231E
:1045F0002361002384F84330CDF800803046214603
:1046000003AA3B46FFF796FE013002D14FF0FF3080
:104610001FE0304639462A462369C0470130F5D0AD
:1046200023689B0705D4E068039B9842B8BF1846EF
:104630000FE00025E368039A9B1A9D42F3DA3046A7
:10464000394604F119020123C0470130DED001359B
:10465000F0E704B0BDE8F081714B0000824B000030
:1046600038B5074C054600202060084611461A461A
:10467000FBF7BEFE431C02D1236803B12B6038BD9B
:10468000AC25002070B50D461446064618B1836966
:104690000BB9FFF7DDF9224B9C4201D1746808E0A9
:1046A000204B9C4201D1B46803E01F4B9C4208BFE1
:1046B000F468A369A360A3891A0709D523693BB1EC
:1046C00023682069EDB2181A636998420FDB08E08D
:1046D0003046214600F02AF80028F1D04FF0FF3094
:1046E00070BD30462146FFF76DFC0028F6D1A36867
:1046F0000130013BA36023685A1C22601D7063696E
:10470000984204D0A389DB0707D50A2D05D130468E
:104710002146FFF757FC0028E0D1284670BD00BFB6
:10472000F84A0000184B0000384B0000314B70B5C0
:104730001D6806460C4625B1AB6913B92846FFF73C
:1047400087F92D4B9C4201D16C6808E02B4B9C42B1
:1047500001D1AC6803E02A4B9C4208BFEC68A389F6
:104760009AB211071DD4D50602D40922326038E06E
:10477000500712D5616B41B104F14403994202D054
:104780003046FFF763FC00236363A38923F024030F
:10479000A3810023636023692360A38943F0080396
:1047A000A38123694BB9A38903F42073B3F5007F78
:1047B00003D03046214600F025F8A38913F001020A
:1047C00005D00022A26062695242A26103E099070B
:1047D00058BF6269A26022694AB903F0800080B2C2
:1047E00030B143F04003A3814FF0FF3070BD002093
:1047F00070BD00BF74000020F84A0000184B000094
:10480000384B0000F0B58B8991B09D0706460C46E9
:1048100025D4B1F90E10002908DAA389002513F078
:10482000800F14BF40274FF480670DE001AA00F00D
:1048300043F80028F1DB029D4FF4806705F47045D2
:10484000A5F500514D424D4130463946FFF7C2F9BA
:1048500060B9A3899A051DD443F00203A38104F132
:104860004703236023610123636113E00A4BB362B2
:10487000A389206043F08003A381206167614DB16B
:104880003046B4F90E1000F029F818B1A38943F0AE
:104890000103A38111B0F0BDD139000010B5C9B238
:1048A00002449042034605D01C7801308C42F8D176
:1048B000184610BD002010BD38B5074C0023054632
:1048C000084611462360FBF769FD431C02D12368AB
:1048D00003B12B6038BD00BFAC25002038B5064CB5
:1048E0000023054608462360FBF768FD431C02D100
:1048F000236803B12B6038BDAC250020F8B500BF9C
:10490000F8BC08BC9E467047F8B500BFF8BC08BCB0
:104910009E4670474865617020616E6420737461C3
:10492000636B20636F6C6C6973696F6E0A000000C3
:10493000050000000000000000C2010000050000AA
:1049400000100000000000002E2E2F4672656552F8
:10495000544F532F65666D333267672F706F7274D3
:104960005F6763632E6300002E2E2F4672656552CB
:10497000544F532F65666D333267672F71756575B8
:10498000652E63002E2E2F4672656552544F532FAD
:1049900065666D333267672F7461736B732E6300C6
:1049A00049444C4500000000546D7220537663006A
:1049B0002E2E2F4672656552544F532F65666D3308
:1049C0003267672F74696D6572732E630000000093
:1049D000546D725100000000633A5C73696C696346
:1049E0006F6E6C6162735C73696D706C696369741E
:1049F0007973747564696F5C76345C646576656C34
:104A00006F7065725C73646B735C6765636B6F5F1B
:104A100073646B5F73756974655C76312E315C709D
:104A20006C6174666F726D5C656D6C69625C696EF9
:104A3000635C656D5F636D752E6800002E2E2F65BB
:104A40006D6C69622F656D5F636D752E630000008C
:104A5000633A5C73696C69636F6E6C6162735C73FB
:104A6000696D706C696369747973747564696F5C7E
:104A700076345C646576656C6F7065725C73646BCC
:104A8000735C6765636B6F5F73646B5F7375697489
:104A9000655C76312E315C706C6174666F726D5C32
:104AA000656D6C69625C696E635C656D5F6770699A
:104AB0006F2E68002E2E2F656D6C69622F656D5FFD
:104AC0006770696F2E6300002E2E2F656D6C696212
:104AD0002F656D5F75736172742E630000000000B6
:104AE00048656C6C6F204672656552544F532120A7
:104AF0003A2D290A0000000000000000000000001C
:104B000000000000000000000000000000000000A5
:104B10000000000000000000000000000000000095
:104B20000000000000000000000000000000000085
:104B30000000000000000000000000000000000075
:104B40000000000000000000000000000000000065
:104B500000000000000000004300000014000020DE
:104B6000232D302B2000686C4C0065666745464756
:104B700000303132333435363738394142434445D9
:104B80004600303132333435363738396162636448
:084B9000656600000000000052
:084B9800A0B5FF7F0100000041
:104BA000006CDC0200800000809FD5002023000004
:104BB000AAAAAAAA00000000F84A0000184B0000A8
:104BC000384B000000000000000000000000000062
:104BD00000000000584B0000000000000000000032
:104BE00000000000000000000000000000000000C5
:104BF00000000000000000000000000000000000B5
:104C000000000000000000000000000000000000A4
:104C1000000000001400002001010000DD00000081
:044C20000000000090
:04000003000001AD4B
:00000001FF
